:100000000C948B000C94AA000C94AA000C94AA00E7
:100010000C94AA000C94AA000C94AA000C94AA00B8
:100020000C94AA000C94AA000C94AA000C94AA00A8
:100030000C94AA000C9423020C94AA000C94AA001D
:100040000C94AA000C94AA000C94AA000C94AA0088
:100050000C94AA000C94AA000C94AA000C94AA0078
:100060000C94AA000C94AA000C94AA000C94AA0068
:100070000C94AA000C94AA000C94AA000C94AA0058
:100080000C94AA000C94AA000C94AA007104D60443
:10009000D604D604D604D604D604D604D604D60490
:1000A000D604D604D604D604D604D604D604D60480
:1000B000D604D604D604D604D604D604D604D60470
:1000C000D604D604D604D604D604D604D604D60460
:1000D000D604D004D604D604D604D604D604D60456
:1000E000C504D604D604D604D604D604CB047704BB
:1000F0007D04830489048F0495049B04A104A70450
:10010000D604D604D604D604D604D604D604AD0448
:10011000B304B904BF0411241FBECFEFD0E4DEBF87
:10012000CDBF11E0A0E0B1E0E2EBFDE000E00BBFED
:1001300002C007900D92A434B107D9F721E0A4E4DE
:10014000B1E001C01D92A137B207E1F70E9443055B
:100150000C94D7060C940000CF93DF93CDB7DEB795
:1001600081E00E94D3000000DF91CF910895CF93EA
:10017000DF93CDB7DEB784E690E00E94770188E395
:100180000E94D30086E00E94D3008FE00E94D3003B
:1001900081E00E94D3008AE090E00E947701000095
:1001A000DF91CF910895CF93DF931F92CDB7DEB744
:1001B00089838BE290E02BE230E0F90120812F7BF4
:1001C000FC01208382E290E02981FC0120838BE204
:1001D00090E02BE230E0F90120812068FC012083CF
:1001E00000008BE290E02BE230E0F90120812F77D4
:1001F000FC01208382E090E00E94770100000F90D4
:10020000DF91CF910895CF93DF931F92CDB7DEB7E3
:1002100089838BE290E02BE230E0F90120812064B9
:10022000FC01208382E290E02981FC0120838BE2A3
:1002300090E02BE230E0F90120812068FC0120836E
:1002400000008BE290E02BE230E0F90120812F7773
:10025000FC01208381E090E00E94770100000F9074
:10026000DF91CF910895CF93DF9300D000D0CDB729
:10027000DEB78A837C836B830E94AC008A8189838A
:1002800011C0898191E0980F99830E9460018B8150
:100290009C819C012F5F3F4F3C832B83FC0180811D
:1002A0000E9403018B819C81FC018081882349F796
:1002B00000000F900F900F900F90DF91CF91089555
:1002C000CF93DF931F92CDB7DEB7898389818131C8
:1002D00028F4898181580E94D30004C08981815506
:1002E0000E94D30000000F90DF91CF910895CF932B
:1002F000DF9300D000D000D0CDB7DEB79E838D83D2
:100300001A82198213C01C821B8206C000008B81D6
:100310009C8101969C838B838B819C818730934049
:10032000ACF389819A8101969A83898329813A81E4
:100330008D819E812817390734F3000026960FB669
:10034000F894DEBF0FBECDBFDF91CF910895CF935C
:10035000DF9300D000D0CDB7DEB769837A838B837B
:100360009C8389819A81AB81BC81809300019093A9
:100370000101A0930201B0930301809100019091CB
:100380000101A0910201B091030180934501909376
:100390004601A0934701B093480100000F900F90D1
:1003A0000F900F90DF91CF910895CF93DF93CDB74A
:1003B000DEB781E890E02BE0FC01208388E890E044
:1003C0002DE730E0FC01318320838FE690E022E0CE
:1003D000FC01208384E890E0FC011182108280916E
:1003E000000190910101A0910201B091030180935D
:1003F000450190934601A0934701B09348018FE5D2
:1004000090E02FE530E0F90120812068FC01208395
:100410000000DF91CF910895CF93DF93CDB7DEB782
:1004200081E890E0FC0110820000DF91CF910895F7
:10043000CF93DF93CDB7DEB781E080934401000016
:10044000DF91CF9108951F920F9200905F000F925D
:10045000112400905B000F922F933F934F935F9373
:100460006F937F938F939F93AF93BF93EF93FF937C
:10047000CF93DF93CDB7DEB78091450190914601D0
:10048000A0914701B09148010197A109B10980935A
:10049000450190934601A0934701B0934801809194
:1004A000450190914601A0914701B0914801892BE7
:1004B0008A2B8B2B91F40E9418028091000190915D
:1004C0000101A0910201B091030180934501909335
:1004D0004601A0934701B09348010000DF91CF91FE
:1004E000FF91EF91BF91AF919F918F917F916F910C
:1004F0005F914F913F912F910F9000925B000F9071
:1005000000925F000F901F901895CF93DF9300D05B
:100510001F92CDB7DEB789836A834B838B81882393
:1005200071F08A81282F30E081E090E002C0880FCE
:10053000991F2A95E2F7982F8981892B0EC08A810D
:10054000282F30E081E090E002C0880F991F2A95A3
:10055000E2F7982F9095898189230F900F900F9043
:10056000DF91CF910895CF93DF9300D0CDB7DEB761
:1005700089836A838A81282F30E081E090E002C07D
:10058000880F991F2A95E2F7982F898189230F9068
:100590000F90DF91CF9108950F931F93CF93DF9327
:1005A000CDB7DEB708E210E040E064E08FEF0E94D4
:1005B0008502F8018083000086E290E0FC018081E2
:1005C000809560E00E94B302882311F081E3D3C0DC
:1005D00086E290E0FC018081809561E00E94B30298
:1005E000882311F084E3C7C086E290E0FC0180819B
:1005F000809562E00E94B302882311F087E3BBC0BC
:1006000086E290E0FC018081809563E00E94B30265
:10061000882311F08AE2AFC008E210E040E065E014
:100620008FEF0E948502F8018083000086E290E04F
:10063000FC018081809560E00E94B302882311F064
:1006400082E399C086E290E0FC018081809561E0C0
:100650000E94B302882311F085E38DC086E290E00A
:10066000FC018081809562E00E94B302882311F032
:1006700088E381C086E290E0FC018081809563E0A0
:100680000E94B302882311F080E375C008E210E0F5
:1006900040E066E08FEF0E948502F8018083000051
:1006A00086E290E0FC018081809560E00E94B302C8
:1006B000882311F083E35FC086E290E0FC01808133
:1006C000809561E00E94B302882311F086E353C055
:1006D00086E290E0FC018081809562E00E94B30296
:1006E000882311F089E347C086E290E0FC01808115
:1006F000809563E00E94B302882311F083E23BC03F
:1007000008E210E040E067E08FEF0E948502F80108
:100710008083000086E290E0FC018081809560E0AB
:100720000E94B302882311F081E425C086E290E0A4
:10073000FC018081809561E00E94B302882311F062
:1007400082E419C086E290E0FC018081809562E03D
:100750000E94B302882311F083E40DC086E290E08A
:10076000FC018081809563E00E94B302882311F030
:1007700084E401C080E0DF91CF911F910F91089533
:10078000CF93DF93CDB7DEB72C970FB6F894DEBFCB
:100790000FBECDBF6D837E838F83988729873A876D
:1007A0004B875C878D819E81AF81B88529853A858D
:1007B0004B855C85BC01CD010E949806DC01CB0114
:1007C00089839A83AB83BC8389819A81AB81BC8105
:1007D000892B8A2B8B2B29F489859A85AB85BC853F
:1007E00011C089859A85AB85BC858D839E83AF8337
:1007F000B88789819A81AB81BC8189879A87AB87C9
:10080000BC87D0CFBC01CD012C960FB6F894DEBFCB
:100810000FBECDBFDF91CF910895CF93DF9300D06E
:100820001F92CDB7DEB789837B836A8389818A3043
:1008300031F48A819B81BC018DE00E940D0480EC23
:1008400090E0FC018081882F90E080729927892BAD
:10085000B1F386EC90E02981FC01208380E090E0F8
:100860000F900F900F90DF91CF910895CF93DF936A
:1008700000D0CDB7DEB79A8389830E94CC028093E3
:10088000490189819A81009719F0019731F00AC0D6
:1008900081E090E09A83898308C081E090E09A83A8
:1008A000898303C01A821982000089819A81019785
:1008B00009F083C080914901882F90E0092E000C37
:1008C000AA0BBB0B40E050E024E430E0841B950B06
:1008D0002817390708F46AC08A5B9F4FFC010C9403
:1008E000BA0685E290E02FE1FC01208365C085E235
:1008F00090E021E0FC0120835FC085E290E022E0EF
:10090000FC01208359C085E290E023E0FC012083B4
:1009100053C085E290E024E0FC0120834DC085E2D5
:1009200090E025E0FC01208347C085E290E026E0CE
:10093000FC01208341C085E290E027E0FC01208398
:100940003BC085E290E028E0FC01208335C085E2D1
:1009500090E029E0FC0120832FC085E290E02AE0AE
:10096000FC01208329C085E290E02BE0FC0120837C
:1009700023C085E290E02CE0FC0120831DC085E2CD
:1009800090E02DE0FC01208317C085E290E02EE08E
:10099000FC01208311C085E290E0FC0110820CC0B4
:1009A00085E290E02FE0FC01208306C085E290E024
:1009B0002BE1FC0120830000000089819A810F90C7
:1009C0000F90DF91CF910895CF93DF9300D000D0A7
:1009D000CDB7DEB79C838B838B819C81009719F008
:1009E000019731F00AC081E090E09C838B8308C0BE
:1009F00081E090E09C838B8303C01C821B820000FB
:100A00008B819C81019709F035C01A8219821CC024
:100A100080914A01282F30E089819A81820F931FAB
:100A200020E330E0B9010E9484068E5E9E4FFC01F7
:100A3000208189819A818F599E4FFC012083898171
:100A40009A8101969A83898389819A81409704F3D8
:100A500080914A01882F90E0019620E330E0B901AF
:100A60000E94840680934A0161E671E081E00E9461
:100A7000330100008B819C810F900F900F900F909D
:100A8000DF91CF9108950F931F93CF93DF93CDB74D
:100A9000DEB729970FB6F894DEBF0FBECDBF81E257
:100AA00090E02FEFFC01208382E290E0FC011082B5
:100AB00084E290E02FEFFC01208385E290E0FC01CE
:100AC000108287E290E020EFFC01208388E290E032
:100AD0002FE0FC0120838AE290E02FEFFC012083CD
:100AE0008BE290E0FC0110820E94B7008BE491E061
:100AF0009F838E8386E591E09987888782E090E0E6
:100B00009C838B838FEF8D838D8180934B018AE053
:100B100090E0A0E0B0E080934C0190934D01A09351
:100B20004E01B0934F0180914C0190914D01A091E5
:100B30004E01B0914F018093500190935101A093C9
:100B40005201B093530186E394E090935501809352
:100B500054018D818093560184E190E0A0E0B0E0E3
:100B60008093570190935801A0935901B0935A0173
:100B70008091570190915801A0915901B0915A016B
:100B800080935B0190935C01A0935D01B0935E0143
:100B900084EE94E09093600180935F016AE070E0DE
:100BA00080E090E00E94A7010E94D5011A8219827C
:100BB0009BC089819A81880F991F9E012F5F3F4FAB
:100BC000820F931F0596FC0180819181FC01258194
:100BD00036814781508589819A81880F991FBE018E
:100BE0006F5F7F4F860F971F0596FC018081918173
:100BF000FC0181819281A381B481281739074A07BA
:100C00005B0709F045C089819A81880F991F9E0171
:100C10002F5F3F4F820F931F0596FC0100811181CA
:100C200089819A81880F991F9E012F5F3F4F820F04
:100C3000931F0596FC0180819181FC0121853285FD
:100C400089819A81880F991FAE014F5F5F4F840F92
:100C5000951F0596FC0180819181FC018081082E01
:100C6000000C990BF9010995F801808389819A811B
:100C7000880F991F9E012F5F3F4F820F931F05968C
:100C8000FC0180819181FC011582168217821086F9
:100C900089819A81880F991F9E012F5F3F4F820F94
:100CA000931F0596FC012081318189819A81880FEB
:100CB000991FAE014F5F5F4F840F951F0596FC0192
:100CC00080819181FC0185819681A781B085019603
:100CD000A11DB11DF90185839683A783B087898102
:100CE0009A8101969A83898329813A818B819C819B
:100CF0002817390708F45DCF00008091440188234C
:100D0000E1F31092440152CF97FB072E16F40094A2
:100D100007D077FD09D00E94C30607FC05D03EF43A
:100D2000909581959F4F0895709561957F4F089597
:100D3000A1E21A2EAA1BBB1BFD010DC0AA1FBB1FDF
:100D4000EE1FFF1FA217B307E407F50720F0A21B51
:100D5000B30BE40BF50B661F771F881F991F1A94BE
:100D600069F760957095809590959B01AC01BD01E8
:100D7000CF010895EE0FFF1F0024001C0BBE07904B
:100D8000F691E02D0994AA1BBB1B51E107C0AA1FD5
:100D9000BB1FA617B70710F0A61BB70B881F991F1C
:100DA0005A95A9F780959095BC01CD010895F894C6
:020DB000FFCF73
:100DB2000100000000000002000000000D0400001D
:100DC2000000435331323042206973204C6567651D
:100DD2006E642E2E2E207761697420666F722069F0
:100DE20074204441525921202020202020202020FC
:040DF20020200000BD
:00000001FF
