:100000000C948B000C94AA000C94AA000C94AA00E7
:100010000C94AA000C94AA000C94AA000C94AA00B8
:100020000C94AA000C94AA000C94AA000C94AA00A8
:100030000C94AA000C9428010C94AA000C94AA0019
:100040000C94AA000C94AA000C94AA000C94AA0088
:100050000C94AA000C94AA000C94AA000C94AA0078
:100060000C94AA000C94AA000C94AA000C94AA0068
:100070000C94AA000C94AA000C94AA000C94AA0058
:100080000C94AA000C94AA000C94AA007603DB033B
:10009000DB03DB03DB03DB03DB03DB03DB03DB0370
:1000A000DB03DB03DB03DB03DB03DB03DB03DB0360
:1000B000DB03DB03DB03DB03DB03DB03DB03DB0350
:1000C000DB03DB03DB03DB03DB03DB03DB03DB0340
:1000D000DB03D503DB03DB03DB03DB03DB03DB0336
:1000E000CA03DB03DB03DB03DB03DB03D0037C039B
:1000F000820388038E0394039A03A003A603AC0330
:10010000DB03DB03DB03DB03DB03DB03DB03B20328
:10011000B803BE03C40311241FBECFEFD0E4DEBF7B
:10012000CDBF11E0A0E0B1E0E4E3FAE000E00BBFF6
:1001300002C007900D92A231B107D9F721E0A2E1E8
:10014000B1E001C01D92A332B207E1F70E94E903BA
:100150000C9418050C940000CF93DF9300D000D0CE
:10016000CDB7DEB769837A838B839C8389819A813B
:10017000AB81BC818093000190930101A0930201A7
:10018000B09303018091000190910101A0910201BF
:10019000B09103018093130190931401A093150172
:1001A000B093160100000F900F900F900F90DF9109
:1001B000CF910895CF93DF93CDB7DEB781E890E07C
:1001C0002BE0FC01208388E890E02DE730E0FC0183
:1001D000318320838FE690E022E0FC01208384E8D5
:1001E00090E0FC0111821082809100019091010148
:1001F000A0910201B0910301809313019093140127
:10020000A0931501B09316018FE590E02FE530E043
:10021000F90120812068FC0120830000DF91CF914B
:100220000895CF93DF93CDB7DEB781E890E0FC016E
:1002300010820000DF91CF910895CF93DF93CDB767
:10024000DEB781E0809312010000DF91CF91089525
:100250001F920F9200905F000F92112400905B009C
:100260000F922F933F934F935F936F937F938F934F
:100270009F93AF93BF93EF93FF93CF93DF93CDB74C
:10028000DEB78091130190911401A0911501B091F6
:1002900016010197A109B1098093130190931401EC
:1002A000A0931501B0931601809113019091140150
:1002B000A0911501B0911601892B8A2B8B2B91F4FB
:1002C0000E941D018091000190910101A091020105
:1002D000B09103018093130190931401A093150131
:1002E000B09316010000DF91CF91FF91EF91BF9184
:1002F000AF919F918F917F916F915F914F913F91BE
:100300002F910F9000925B000F9000925F000F9072
:100310001F901895CF93DF9300D01F92CDB7DEB713
:1003200089836A834B838B81882371F08A81282F8C
:1003300030E081E090E002C0880F991F2A95E2F733
:10034000982F8981892B0EC08A81282F30E081E087
:1003500090E002C0880F991F2A95E2F7982F909598
:10036000898189230F900F900F90DF91CF9108958D
:10037000CF93DF9300D0CDB7DEB789836A838A81BC
:10038000282F30E081E090E002C0880F991F2A9565
:10039000E2F7982F898189230F900F90DF91CF91F9
:1003A00008950F931F93CF93DF93CDB7DEB708E285
:1003B00010E040E064E08FEF0E948A01F801808342
:1003C000000086E290E0FC018081809560E00E9460
:1003D000B801882311F081E3D3C086E290E0FC01EC
:1003E0008081809561E00E94B801882311F084E348
:1003F000C7C086E290E0FC018081809562E00E94A7
:10040000B801882311F087E3BBC086E290E0FC01CD
:100410008081809563E00E94B801882311F08AE210
:10042000AFC008E210E040E065E08FEF0E948A0173
:10043000F8018083000086E290E0FC0180818095D5
:1004400060E00E94B801882311F082E399C086E23F
:1004500090E0FC018081809561E00E94B8018823D2
:1004600011F085E38DC086E290E0FC0180818095EB
:1004700062E00E94B801882311F088E381C086E21F
:1004800090E0FC018081809563E00E94B8018823A0
:1004900011F080E375C008E210E040E066E08FEF05
:1004A0000E948A01F8018083000086E290E0FC014E
:1004B0008081809560E00E94B801882311F083E379
:1004C0005FC086E290E0FC018081809561E00E943F
:1004D000B801882311F086E353C086E290E0FC0166
:1004E0008081809562E00E94B801882311F089E341
:1004F00047C086E290E0FC018081809563E00E9425
:10050000B801882311F083E23BC008E210E040E02C
:1005100067E08FEF0E948A01F8018083000086E285
:1005200090E0FC018081809560E00E94B801882302
:1005300011F081E425C086E290E0FC018081809585
:1005400061E00E94B801882311F082E419C086E2BC
:1005500090E0FC018081809562E00E94B8018823D0
:1005600011F083E40DC086E290E0FC01808180956B
:1005700063E00E94B801882311F084E401C080E0A8
:10058000DF91CF911F910F910895CF93DF93CDB756
:10059000DEB72C970FB6F894DEBF0FBECDBF6D83CC
:1005A0007E838F83988729873A874B875C878D81E5
:1005B0009E81AF81B88529853A854B855C85BC01D4
:1005C000CD010E94ED04DC01CB0189839A83AB83CA
:1005D000BC8389819A81AB81BC81892B8A2B8B2B2F
:1005E00029F489859A85AB85BC8511C089859A8552
:1005F000AB85BC858D839E83AF83B88789819A81C3
:10060000AB81BC8189879A87AB87BC87D0CFBC017F
:10061000CD012C960FB6F894DEBF0FBECDBFDF9193
:10062000CF910895CF93DF9300D01F92CDB7DEB75F
:1006300089837B836A8389818A3031F48A819B81B3
:10064000BC018DE00E94120380EC90E0FC018081EF
:10065000882F90E080729927892BB1F386EC90E087
:100660002981FC01208380E090E00F900F900F9093
:10067000DF91CF910895CF93DF9300D0CDB7DEB750
:100680009A8389830E94D1018093170189819A817D
:10069000009719F0019731F00AC081E090E09A8349
:1006A000898308C081E090E09A83898303C01A821D
:1006B0001982000089819A81019709F083C0809195
:1006C0001701882F90E0092E000CAA0BBB0B40E00D
:1006D00050E024E430E0841B950B2817390708F418
:1006E0006AC08A5B9F4FFC010C940F0585E290E085
:1006F0002FE1FC01208365C085E290E021E0FC0150
:1007000020835FC085E290E022E0FC01208359C095
:1007100085E290E023E0FC01208353C085E290E075
:1007200024E0FC0120834DC085E290E025E0FC013F
:10073000208347C085E290E026E0FC01208341C091
:1007400085E290E027E0FC0120833BC085E290E059
:1007500028E0FC01208335C085E290E029E0FC011F
:1007600020832FC085E290E02AE0FC01208329C08D
:1007700085E290E02BE0FC01208323C085E290E03D
:100780002CE0FC0120831DC085E290E02DE0FC01FF
:10079000208317C085E290E02EE0FC01208311C089
:1007A00085E290E0FC0110820CC085E290E02FE031
:1007B000FC01208306C085E290E02BE1FC01208350
:1007C0000000000089819A810F900F90DF91CF91F6
:1007D00008950F931F93CF93DF93CDB7DEB727977D
:1007E0000FB6F894DEBF0FBECDBF84E290E02FEFCE
:1007F000FC01208385E290E0FC01108287E290E01A
:1008000020EFFC01208388E290E02FE0FC012083B0
:1008100088E191E09F838E8381E090E09C838B83CD
:100820008FEF8D838D818093180182E390E0A0E0AB
:10083000B0E08093190190931A01A0931B01B0932B
:100840001C018091190190911A01A0911B01B09196
:100850001C0180931D0190931E01A0931F01B09372
:1008600020018BE393E0909322018093210162E3C6
:1008700070E080E090E00E94AC000E94DA001A82F2
:1008800019829BC089819A81880F991F9E012F5FD1
:100890003F4F820F931F0596FC0180819181FC01DF
:1008A000258136814781508589819A81880F991FDA
:1008B000BE016F5F7F4F860F971F0596FC018081F9
:1008C0009181FC0181819281A381B481281739072C
:1008D0004A075B0709F045C089819A81880F991FF3
:1008E0009E012F5F3F4F820F931F0596FC010081F1
:1008F000118189819A81880F991F9E012F5F3F4F37
:10090000820F931F0596FC0180819181FC01218556
:10091000328589819A81880F991FAE014F5F5F4FA1
:10092000840F951F0596FC0180819181FC018081D7
:10093000082E000C990BF9010995F8018083898133
:100940009A81880F991F9E012F5F3F4F820F931F3F
:100950000596FC0180819181FC0115821682178227
:10096000108689819A81880F991F9E012F5F3F4FC2
:10097000820F931F0596FC012081318189819A8124
:10098000880F991FAE014F5F5F4F840F951F05962B
:10099000FC0180819181FC0185819681A781B085D0
:1009A000C296A11DB11DF90185839683A783B087E7
:1009B00089819A8101969A83898329813A818B81E1
:1009C0009C812817390708F45DCF0000809112013F
:1009D0008823E1F31092120152CFA1E21A2EAA1B32
:1009E000BB1BFD010DC0AA1FBB1FEE1FFF1FA217DF
:1009F000B307E407F50720F0A21BB30BE40BF50BDC
:100A0000661F771F881F991F1A9469F76095709564
:100A1000809590959B01AC01BD01CF010895EE0F2B
:100A2000FF1F0024001C0BBE0790F691E02D0994D7
:040A3000F894FFCF68
:100A3400010000000000000200000000120300009A
:020A44000000B0
:00000001FF
